S01C000053756E53656E736F725F41565244425F76302E352E7372656322
S11300000C94A0000C94B2000C94B2000C94B200B6
S11300100C94B2000C94B2000C94B2000C94B20094
S11300200C94B2000C94B2000C94B2000C94B20084
S11300300C94B2000C94B2000C94B2000C94B20074
S11300400C94B2000C94B2000C946D010C94B200A8
S11300500C94B2000C94B2000C94B2000C94B20054
S11300600C94B2000C94B2000C94B2000C94B20044
S11300700C94B2000C94B2000C94B2000C94B20034
S11300800C94B2000C94B2000C94B2000C94B20024
S11300900C94B2000C94B2000C94B2000C94B20014
S11300A00C94B2000C94B2000C94B2000C94B20004
S11300B00C94B2000C94B2000C94B2000C94B200F4
S11300C00C94B2000C94B2000C94B2000C94B200E4
S11300D00C94B2000C94B2000C94B2000C94B200D4
S11300E00C94B2000C94B2000C94B2000C94B200C4
S11300F00C94B200084AD73B3BCE016E84BCBFFDD2
S1130100C12F3D6C74319ABD56833DDA3D00C77FE3
S113011011BED9E4BB4C3E916BAAAABE000000807C
S11301203F05A84CCDB2D44EB93836A9020C50B90B
S1130130918688083CA6AAAA2ABE000000803F0037
S113014011241FBECFEFCDBFDFE7DEBF20E4A0E068
S1130150B0E401C01D92A634B207E1F70E94B400D6
S11301600C94DD070C940000E0E6F4E08FEF82834A
S113017080898460808B8089877F808B88E08093EE
S11301801C4085E59EEDAEE0BBE380934140909337
S11301904240A0934340B093444086E996E2A5EAE6
S11301A0BAE38093214090932240A0932340B093DC
S11301B0244088E00E94FF000E94E0007894FFCF72
S11301C0E0EBF0E0808181608083E0E0F6E0808114
S11301D080838281856082838081816080830895A9
S11301E0E0E0F6E0808781E08287EDE0F6E0808160
S11301F080FFFDCF80911006909111060895E0E0F4
S1130200F9E093EC9187880F848781E08093044020
S113021010924040089560932940662371F0FC01D8
S1130220AEE0B0E4615070E06F5F7F4F860F971FC0
S113023021912D93E817F907D9F708958091044087
S11302408823C9F0109204402091404060912940D5
S1130250822F0E94D107E92FF0E0E25FFF4B8081FB
S113026080930D092F5F20934040EBE0F9E08081FB
S11302708823ECF7089580910B0984FD17C0209121
S1130280404060912940822F0E94D107E92FF0E07D
S1130290E25FFF4B808180930D092F5F20934040E4
S11302A0EBE0F9E080818823ECF7089510920D09C2
S11302B081E080930440109240400895E0E0F9E02A
S11302C012868285836082870895E0E0F9E084E005
S11302D0828782858360828708951F920F920FB66A
S11302E00F9211240BB60F922F933F934F935F936A
S11302F06F937F938F939F93AF93BF93EF93FF93EA
S113030080910B0986FF07C080910B0980FF03C011
S11303100E945E013BC080910B098823BCF580914B
S11303200B0981FF03C00E941E0130C080910D099A
S1130330809345400E94650180914540843049F096
S113034018F4823031F022C0853069F08630A9F08B
S11303501DC00E94D9010E94590364E084E190E425
S11303600E940B0113C00E94D9010E94A00366E001
S11303708AE390E40E940B0109C00E94D9010E9403
S1130380230468E08EE290E40E940B01FF91EF9158
S1130390BF91AF919F918F917F916F915F914F9199
S11303A03F912F910F900BBE0F900FBE0F901F9097
S11303B018954F925F926F927F928F929F92AF9215
S11303C0BF92CF92DF92EF92FF92CF93DF93CDB79C
S11303D0DEB76097CDBFDEBF80E00E94F000A0E0F2
S11303E0B0E080930A4090930B40A0930C40B093EC
S11303F00D4081E00E94F000A0E0B0E080931D4039
S113040090931E40A0931F40B093204082E00E942E
S1130410F000A0E0B0E080932A4090932B40A0939A
S11304202C40B0932D4083E00E94F0002C01612CFD
S1130430712C4092004050920140609202407092B0
S1130440034080901D4090901E40A0901F40B090AB
S11304502040C0902A40D0902B40E0902C40F09057
S11304602D4020910A4030910B4040910C40509116
S11304700D4029833A834B835C83280D391D4A1D23
S11304805B1D2D833E834F835887DA01C9018C0D90
S11304909D1DAE1DBF1DBC01CD01640D751D861DC6
S11304A0971D0E94870569877A878B879C8780912F
S11304B0214090912240A0912340B09124408D8707
S11304C09E87AF87B88BD501C4018C0D9D1DAE1DD1
S11304D0BF1D29813A814B815C81821B930BA40B44
S11304E0B50BBC01CD0164197509860997090E94F1
S11304F0870529853A854B855C850E94E4042D8512
S11305003E854F8558890E94AA064B015C01609381
S113051005407093064080930740909308408D8176
S11305209E81AF81B8858C199D09AE09BF09BC01B4
S1130530CD0164197509860997090E9487052985E3
S11305403A854B855C850E94E4042D853E854F8564
S113055058890E94AA066B017C016093364070930F
S113056037408093384090933940A5019401C501E8
S1130570B4010E94AA062B013C01A7019601C70100
S1130580B6010E94AA0669837A838B839C8329819E
S11305903A814B815C81C301B2010E943F040E94F5
S11305A0490720914140309142404091434050914D
S11305B044400E94E4040E94AB046093184070938A
S11305C0194080931A4090931B4020E030E0A90129
S11305D0C501B4010E94DA048823BCF4A501940186
S11305E0C701B6010E94E4040E94AB042BED3FE076
S11305F049E450E40E943F046093254070932640F0
S1130600809327409093284042C020E030E0A90125
S1130610C701B6010E94DA048823BCF4A501940141
S1130620C701B6010E94E4040E94AB0423E839EF39
S113063042E25FE30E943F046093254070932640AA
S1130640809327409093284022C020E030E0A90105
S1130650C701B6010E949D0618168CF4A5019401E9
S1130660C701B6010E94E4040E94AB0460932540D4
S113067070932640809327409093284008C010929E
S113068025401092264010922740109228406096F0
S1130690CDBFDEBFDF91CF91FF90EF90DF90CF9081
S11306A0BF90AF909F908F907F906F905F904F908E
S11306B00895CF93DF9320E030E044E353E4609166
S11306C018407091194080911A4090911B400E94EB
S11306D0AA062BED3FE049E450E40E94E40420E044
S11306E030E048EC52E40E94AA060E9417070E94D8
S11306F05605C4E1D0E47883698320E030E044E324
S113070053E4609125407091264080912740909158
S113071028400E94AA062BED3FE049E450E40E94E1
S1130720E40420E030E048EC52E40E94AA060E946F
S113073017070E9456057A836B83DF91CF91089542
S11307404F925F926F927F928F929F92AF92BF92DD
S1130750CF92DF92EF92FF92CF93DF93C090184035
S1130760D0901940E0901A40F0901B40C701B601A8
S11307700E943B074B015C0140902540509026406D
S11307806090274070902840C301B2010E94DF04AA
S11307909B01AC01C501B4010E94AA0620E030E02F
S11307A040E855E40E94AA0620E030E040E055E429
S11307B00E943F040E9417070E945605CAE3D0E432
S11307C078836983C301B2010E943B079B01AC019A
S11307D0C501B4010E94AA0620E030E040E855E4D7
S11307E00E94AA0620E030E040E055E40E943F0465
S11307F00E9417070E9456057A831B82C701B6011F
S11308000E94DF0420E030E040EA55E40E94AA069A
S113081020E030E040E855E40E943E040E941707BF
S11308200E9456057C836D83DF91CF91FF90EF90FA
S1130830DF90CF90BF90AF909F908F907F906F90FC
S11308405F904F90089580910A4090910B40EEE2A2
S1130850F0E49083818380911D4090911E409283A7
S1130860838380912A4090912B4094838583809147
S11308700040909101409683878308955058BB2788
S1130880AA270E9456040C944F060E94160638F0BC
S11308900E941D0620F039F49F3F19F426F40C94AD
S11308A0EC050EF4E095E7FB0C94E605E92F0E94B5
S11308B0740658F3BA17620773078407950720F084
S11308C079F4A6F50C9496060EF4E0950B2EBA2F47
S11308D0A02D0B01B90190010C01CA01A001112442
S11308E0FF27591B99F0593F50F4503E68F11A16EE
S11308F0F040A22F232F342F4427585FF3CF46957F
S113090037952795A795F0405395C9F77EF41F16A0
S1130910BA0B620B730B840BBAF09150A1F0FF0F6A
S1130920BB1F661F771F881FC2F70EC0BA0F621F56
S1130930731F841F48F4879577956795B795F79546
S11309409E3F08F0B0CF9395880F08F09927EE0FDB
S1130950979587950895DF93DD27B92FBF7740E8F2
S11309605FE31616170648075B0718F4D92F0E9491
S1130970A2069F938F937F936F930E948907E4EF5E
S1130980F0E00E94EF050E944F062F913F914F9196
S11309905F910E94BD06DD2351F09058A2EA2AED32
S11309A03FE049EC5FE3D0785D270E945604DF9175
S11309B00C944F060E94C20508F481E008950E9439
S11309C02606E3950C9460060E94F8040C944F06E6
S11309D00E941D0658F00E94160640F029F45F3F5D
S11309E029F00C94E60551110C9497060C94EC052F
S11309F00E94740668F39923B1F3552391F3951B70
S1130A00550BBB27AA2762177307840738F09F5F2B
S1130A105F4F220F331F441FAA1FA9F335D00E2E98
S1130A203AF0E0E832D091505040E695001CCAF705
S1130A302BD0FE2F29D0660F771F881FBB1F2617C8
S1130A4037074807AB07B0E809F0BB0B802DBF019F
S1130A50FF2793585F4F3AF09E3F510578F00C946E
S1130A60E6050C9497065F3FE4F3983ED4F386952D
S1130A7077956795B795F7959F5FC9F7880F911D8F
S1130A809695879597F90895E1E0660F771F881F7B
S1130A90BB1F621773078407BA0720F0621B730B2E
S1130AA0840BBA0BEE1F88F7E09508950E947C062C
S1130AB088F09F5798F0B92F9927B751B0F0E1F01B
S1130AC0660F771F881F991F1AF0BA95C9F714C0CB
S1130AD0B13091F00E949606B1E008950C94960608
S1130AE0672F782F8827B85F39F0B93FCCF3869504
S1130AF077956795B395D9F73EF490958095709561
S1130B0061957F4F8F4F9F4F0895E89409C097FBDD
S1130B103EF490958095709561957F4F8F4F9F4FD0
S1130B209923A9F0F92F96E9BB279395F695879514
S1130B3077956795B795F111F8CFFAF4BB0F11F4D7
S1130B4060FF1BC06F5F7F4F8F4F9F4F16C088237E
S1130B5011F096E911C0772321F09EE8872F762FB4
S1130B6005C0662371F096E8862F70E060E02AF0F5
S1130B709A95660F771F881FDAF7880F96958795E1
S1130B8097F90895990F0008550FAA0BE0E8FEEFB6
S1130B9016161706E807F907C0F012161306E4073D
S1130BA0F50798F0621B730B840B950B39F40A2636
S1130BB061F0232B242B252B21F408950A2609F414
S1130BC0A140A6958FEF811D811D089597F99F6718
S1130BD080E870E060E008959FEF80EC0895DF9373
S1130BE0CF931F930F93FF92EF92DF927B018C01BF
S1130BF0689406C0DA2EEF010E94BD06FE01E89457
S1130C00A5912591359145915591A6F3EF010E9447
S1130C105604FE019701A801DA9469F7DF90EF907A
S1130C20FF900F911F91CF91DF91089500240A94B2
S1130C301616170618060906089500240A941216B3
S1130C4013061406050608950C94EC050E947C0610
S1130C50D8F3E894E0E0BB279F57F0F02AED3FE09B
S1130C6049EC06C0EE0FBB0F661F771F881F28F0E4
S1130C70B23A62077307840728F0B25A620B730B07
S1130C80840BE3959A9572F7803830F49A95BB0FEC
S1130C90661F771F881FD2F790480C94AA07092E65
S1130CA00394000C11F4882352F0BB0F40F4BF2BC3
S1130CB011F460FF04C06F5F7F4F8F4F9F4F089503
S1130CC0EF93E0FF07C0A2EA2AED3FE049EC5FEBB7
S1130CD00E9456040E944F060F90039401FC905802
S1130CE0E1E2F1E00C94BD0757FD9058440F551F05
S1130CF059F05F3F71F04795880F97FB991F61F09A
S1130D009F3F79F087950895121613061406551F10
S1130D10F2CF4695F1DF08C0161617061806991F7C
S1130D20F1CF86957105610508940895E894BB2771
S1130D3066277727CB0197F908950E94C20508F426
S1130D408FEF08959B01AC0160E070E080E89FE3C1
S1130D500C94E4040E94BD060C944F060E941606EF
S1130D6038F00E941D0620F0952311F00C94E6053E
S1130D700C94EC0511240C9497060E94740670F3ED
S1130D80959FC1F3950F50E0551F629FF001729F2C
S1130D90BB27F00DB11D639FAA27F00DB11DAA1F3B
S1130DA0649F6627B00DA11D661F829F2227B00D88
S1130DB0A11D621F739FB00DA11D621F839FA00D13
S1130DC0611D221F749F3327A00D611D231F849F63
S1130DD0600D211D822F762F6A2F11249F575040BA
S1130DE09AF0F1F088234AF0EE0FFF1FBB1F661F35
S1130DF0771F881F91505040A9F79E3F510580F0FE
S1130E000C94E6050C9497065F3FE4F3983ED4F304
S1130E10869577956795B795F795E7959F5FC1F7A1
S1130E20FE2B880F911D9695879597F908950E943A
S1130E307C06E8F09E37E8F09639B8F49E3848F41A
S1130E40672F782F8827985FF9CF869577956795D0
S1130E5093959539D0F3B62FB1706B0F711D811D29
S1130E6020F487957795679593950C948D070C944A
S1130E70A8070C9497069F930E9426060F9007FCE0
S1130E80EE5F0C94600619F416F40C94EC050C94C3
S1130E90A8070E947C06B8F39923C9F3B6F39F57B9
S1130EA0550B87FF0E94B6070024A0E640EA900194
S1130EB080585695979528F4805C660F771F881F95
S1130EC020F026173707480730F4621B730B840B96
S1130ED0202931294A2BA6951794079420253125DA
S1130EE04A2758F7660F771F881F20F02617370701
S1130EF0480730F4620B730B840B200D311D411D28
S1130F00A09581F7B901842F9158880F96958795FC
S1130F1008959B01AC010C94AA06882371F47723ED
S1130F2021F09850872B762F07C0662311F4992758
S1130F300DC09051862B70E060E02AF09A95660F00
S1130F40771F881FDAF7880F9695879597F9089584
S1130F509F3F31F0915020F4879577956795B79529
S1130F60880F911D9695879597F908959150504053
S1130F70660F771F881FD2F708959F938F937F93EF
S1130F806F93FF93EF939B01AC010E94AA06EF912C
S1130F90FF910E94EF052F913F914F915F910C9427
S1130FA0AA06991B79E004C0991F961708F0961BAE
S1110FB0881F7A95C9F780950895F894FFCFAD
S9030000FC
