:100000000C94A0000C94B2000C94B2000C94B200BA
:100010000C94B2000C94B2000C94B2000C94B20098
:100020000C94B2000C94B2000C94B2000C94B20088
:100030000C94B2000C94B2000C94B2000C94B20078
:100040000C94B2000C94B2000C940E010C94B2000B
:100050000C94B2000C94B2000C94B2000C94B20058
:100060000C94B2000C94B2000C94B2000C94B20048
:100070000C94B2000C94B2000C94B2000C94B20038
:100080000C94B2000C94B2000C94B2000C94B20028
:100090000C94B2000C94B2000C94B2000C94B20018
:1000A0000C94B2000C94B2000C94B2000C94B20008
:1000B0000C94B2000C94B2000C94B2000C94B200F8
:1000C0000C94B2000C94B2000C94B2000C94B200E8
:1000D0000C94B2000C94B2000C94B2000C94B200D8
:1000E0000C94B2000C94B2000C94B2000C94B200C8
:1000F0000C94B200084AD73B3BCE016E84BCBFFDD6
:10010000C12F3D6C74319ABD56833DDA3D00C77FE7
:1001100011BED9E4BB4C3E916BAAAABE0000008080
:100120003F05A84CCDB2D44EB93836A9020C50B90F
:10013000918688083CA6AAAA2ABE000000803F003B
:1001400011241FBECFEFCDBFDFE7DEBF20E4A0E06C
:10015000B0E401C01D92AA33B207E1F70E94B400D7
:100160000C9441060C94000088E08093144085E5CF
:100170009EEDAEE0BBE38093354090933640A09374
:100180003740B093384086E996E2A5EABAE3809317
:10019000194090931A40A0931B40B0931C4088E0F4
:1001A0000E94DF000E94D500FFCF83E08093B00063
:1001B000E0E0F6E085E0828381E080830895789432
:1001C000E0E0F9E091EC9187880F84870895813011
:1001D00059F028F0823069F0833081F014C0FB01BF
:1001E000838180930D090895FB01828180930D091D
:1001F0000895FB01818180930D090895FB018081A1
:1002000080930D0908958FE680930D090895E0E02D
:10021000F9E0128682858360828708951F920F928B
:100220000FB60F9211240BB60F922F933F934F935B
:100230005F936F937F938F939F93AF93BF93EF934E
:10024000FF9380910B0986FF07C080910B0980FF07
:1002500003C00E9407012DC080910B0988234CF533
:1002600080910B0981FF09C06CE070E480913940F6
:100270000E94E7000E9407011CC080910D09809335
:1002800039400E94070180913940843091F42091D7
:100290003540309136404091374050913840609120
:1002A000194070911A4080911B4090911C400E940F
:1002B0006C01FF91EF91BF91AF919F918F917F91D1
:1002C0006F915F914F913F912F910F900BBE0F90C7
:1002D0000FBE0F901F9018954F925F926F927F9272
:1002E0008F929F92AF92BF92CF92DF92EF92FF9246
:1002F000CF93DF93CDB7DEB72897CDBFDEBF6B01BD
:100300007C012D833E834F83588789E090E0A0E0F5
:10031000B0E08093084090930940A0930A40B093C6
:100320000B4083E090E0A0E0B0E080931540909314
:100330001640A0931740B093184041E050E060E0B1
:1003400070E040932140509322406093234070938B
:1003500024408093004090930140A0930240B093CA
:10036000034020E030E040E05FEBC701B6010E94AF
:100370001A054B015C016093044070930540809323
:1003800006409093074020E030E040E05FE3C70183
:10039000B6010E941A056B017C01609325407093A1
:1003A00026408093274090932840A5019401C501E1
:1003B000B4010E941A052B013C01A7019601C70157
:1003C000B6010E941A0569837A838B839C832981F5
:1003D0003A814B815C81C301B2010E94EC020E9410
:1003E000B9052D813E814F8158850E9491030E945D
:1003F00058032B013C01609310407093114080938F
:1004000012409093134020E030E0A901C501B401EF
:100410000E9487038823BCF4A5019401C701B6019B
:100420000E9491030E9458032BED3FE049E450E401
:100430000E94EC0260931D4070931E4080931F4009
:100440009093204042C020E030E0A901C701B601EE
:100450000E9487038823BCF4A5019401C701B6015B
:100460000E9491030E94580323E839EF42E25FE3C0
:100470000E94EC0260931D4070931E4080931F40C9
:100480009093204022C020E030E0A901C701B601CE
:100490000E940D0518168CF4A5019401C701B60140
:1004A0000E9491030E94580360931D4070931E4068
:1004B00080931F409093204008C010921D401092DE
:1004C0001E4010921F401092204020E030E044E394
:1004D00053E4C301B2010E941A052BED3FE049E449
:1004E00050E40E94910320E030E048EC52E40E9486
:1004F0001A050E9487050E940304ECE0F0E4608383
:100500007183C0901D40D0901E40E0901F40F0903D
:10051000204020E030E044E353E4C701B6010E94EC
:100520001A052BED3FE049E450E40E94910320E0DE
:1005300030E048EC52E40E941A050E9487050E94B0
:10054000030460930E4070930F40C301B2010E94F8
:10055000AB054B015C01C701B6010E948C039B01F6
:10056000AC01C501B4010E941A05E9E2F0E4608320
:10057000718382839383C701B6010E94AB059B01FF
:10058000AC01C501B4010E941A0560932D4070931F
:100590002E4080932F4090933040C301B2010E94BF
:1005A0008C0360933140709332408093334090933A
:1005B00034402896CDBFDEBFDF91CF91FF90EF9002
:1005C000DF90CF90BF90AF909F908F907F906F9073
:1005D0005F904F9008955058BB27AA270E940303AD
:1005E0000C94BF040E94860438F00E948D0420F011
:1005F00039F49F3F19F426F40C945C040EF4E09552
:10060000E7FB0C945604E92F0E94E40458F3BA1750
:10061000620773078407950720F079F4A6F50C9418
:1006200006050EF4E0950B2EBA2FA02D0B01B90193
:1006300090010C01CA01A0011124FF27591B99F058
:10064000593F50F4503E68F11A16F040A22F232F64
:10065000342F4427585FF3CF469537952795A795B4
:10066000F0405395C9F77EF41F16BA0B620B730B5B
:10067000840BBAF09150A1F0FF0FBB1F661F771FCC
:10068000881FC2F70EC0BA0F621F731F841F48F481
:10069000879577956795B795F7959E3F08F0B0CF0A
:1006A0009395880F08F09927EE0F979587950895F1
:1006B000DF93DD27B92FBF7740E85FE316161706F3
:1006C00048075B0718F4D92F0E9412059F938F9358
:1006D0007F936F930E94F905E4EFF0E00E945F04BE
:1006E0000E94BF042F913F914F915F910E942D0571
:1006F000DD2351F09058A2EA2AED3FE049EC5FE398
:10070000D0785D270E940303DF910C94BF040E9400
:10071000320408F481E008950E949604E3950C9455
:10072000D0040E94A5030C94BF040E948D0458F0CD
:100730000E94860440F029F45F3F29F00C9456048F
:1007400051110C9407050C945C040E94E40468F3B6
:100750009923B1F3552391F3951B550BBB27AA277A
:1007600062177307840738F09F5F5F4F220F331FB4
:10077000441FAA1FA9F335D00E2E3AF0E0E832D07C
:1007800091505040E695001CCAF72BD0FE2F29D07F
:10079000660F771F881FBB1F261737074807AB0751
:1007A000B0E809F0BB0B802DBF01FF2793585F4FC6
:1007B0003AF09E3F510578F00C9456040C940705CE
:1007C0005F3FE4F3983ED4F3869577956795B795A8
:1007D000F7959F5FC9F7880F911D9695879597F9B3
:1007E0000895E1E0660F771F881FBB1F621773072C
:1007F0008407BA0720F0621B730B840BBA0BEE1F41
:1008000088F7E09508950E94EC0488F09F5798F0CF
:10081000B92F9927B751B0F0E1F0660F771F881F05
:10082000991F1AF0BA95C9F714C0B13091F00E941F
:100830000605B1E008950C940605672F782F8827E8
:10084000B85F39F0B93FCCF3869577956795B39546
:10085000D9F73EF490958095709561957F4F8F4FB5
:100860009F4F0895990F0008550FAA0BE0E8FEEF7F
:1008700016161706E807F907C0F012161306E40764
:10088000F50798F0621B730B840B950B39F40A265D
:1008900061F0232B242B252B21F408950A2609F43B
:1008A000A140A6958FEF811D811D089597F99F673F
:1008B00080E870E060E008959FEF80EC0895DF939A
:1008C000CF931F930F93FF92EF92DF927B018C01E6
:1008D000689406C0DA2EEF010E942D05FE01E8940F
:1008E000A5912591359145915591A6F3EF010E946F
:1008F0000303FE019701A801DA9469F7DF90EF90F6
:10090000FF900F911F91CF91DF91089500240A94D9
:100910001616170618060906089500240A941216DA
:1009200013061406050608950C945C040E94EC045A
:10093000D8F3E894E0E0BB279F57F0F02AED3FE0C2
:1009400049EC06C0EE0FBB0F661F771F881F28F00B
:10095000B23A62077307840728F0B25A620B730B2E
:10096000840BE3959A9572F7803830F49A95BB0F13
:10097000661F771F881FD2F790480C941A06092E1D
:100980000394000C11F4882352F0BB0F40F4BF2BEA
:1009900011F460FF04C06F5F7F4F8F4F9F4F08952A
:1009A000EF93E0FF07C0A2EA2AED3FE049EC5FEBDE
:1009B0000E9403030E94BF040F90039401FC90580F
:1009C000E1E2F1E00C942D0657FD9058440F551FBD
:1009D00059F05F3F71F04795880F97FB991F61F0C1
:1009E0009F3F79F087950895121613061406551F38
:1009F000F2CF4695F1DF08C0161617061806991FA4
:100A0000F1CF86957105610508940895E894BB2798
:100A100066277727CB0197F908950E94320408F4DE
:100A20008FEF08959B01AC0160E070E080E89FE3E8
:100A30000C9491030E942D050C94BF040E9486041F
:100A400038F00E948D0420F0952311F00C94560488
:100A50000C945C0411240C9407050E94E40470F3C8
:100A6000959FC1F3950F50E0551F629FF001729F53
:100A7000BB27F00DB11D639FAA27F00DB11DAA1F62
:100A8000649F6627B00DA11D661F829F2227B00DAF
:100A9000A11D621F739FB00DA11D621F839FA00D3A
:100AA000611D221F749F3327A00D611D231F849F8A
:100AB000600D211D822F762F6A2F11249F575040E1
:100AC0009AF0F1F088234AF0EE0FFF1FBB1F661F5C
:100AD000771F881F91505040A9F79E3F510580F025
:100AE0000C9456040C9407055F3FE4F3983ED4F34E
:100AF000869577956795B795F795E7959F5FC1F7C9
:100B0000FE2B880F911D9695879597F908950E9461
:100B1000EC04E8F09E37E8F09639B8F49E3848F4D3
:100B2000672F782F8827985FF9CF869577956795F7
:100B300093959539D0F3B62FB1706B0F711D811D50
:100B400020F487957795679593950C94FD050C9403
:100B500018060C9407059F930E9496040F9007FCBB
:100B6000EE5F0C94D00419F416F40C945C040C940D
:100B700018060E94EC04B8F39923C9F3B6F39F5703
:100B8000550B87FF0E9426060024A0E640EA90014C
:100B900080585695979528F4805C660F771F881FBC
:100BA00020F026173707480730F4621B730B840BBD
:100BB000202931294A2BA695179407942025312501
:100BC0004A2758F7660F771F881F20F02617370728
:100BD000480730F4620B730B840B200D311D411D4F
:100BE000A09581F7B901842F9158880F9695879524
:100BF00008959B01AC010C941A05882371F47723A6
:100C000021F09850872B762F07C0662311F499277F
:100C10000DC09051862B70E060E02AF09A95660F27
:100C2000771F881FDAF7880F9695879597F90895AB
:100C30009F3F31F0915020F4879577956795B79550
:100C4000880F911D9695879597F90895915050407A
:100C5000660F771F881FD2F708959F938F937F9316
:100C60006F93FF93EF939B01AC010E941A05EF91E4
:100C7000FF910E945F042F913F914F915F910C94DF
:060C80001A05F894FFCFF5
:00000001FF
